{
  "contractName": "Exchange",
  "abi": [
    {
      "inputs": [
        {
          "internalType": "address",
          "name": "_feeAcount",
          "type": "address"
        },
        {
          "internalType": "uint256",
          "name": "_freePercent",
          "type": "uint256"
        }
      ],
      "stateMutability": "nonpayable",
      "type": "constructor"
    },
    {
      "anonymous": false,
      "inputs": [
        {
          "indexed": false,
          "internalType": "uint256",
          "name": "id",
          "type": "uint256"
        },
        {
          "indexed": false,
          "internalType": "address",
          "name": "user",
          "type": "address"
        },
        {
          "indexed": false,
          "internalType": "address",
          "name": "tokenGet",
          "type": "address"
        },
        {
          "indexed": false,
          "internalType": "uint256",
          "name": "amountGet",
          "type": "uint256"
        },
        {
          "indexed": false,
          "internalType": "address",
          "name": "tokenGive",
          "type": "address"
        },
        {
          "indexed": false,
          "internalType": "uint256",
          "name": "amountGive",
          "type": "uint256"
        },
        {
          "indexed": false,
          "internalType": "uint256",
          "name": "timestamp",
          "type": "uint256"
        }
      ],
      "name": "Cancel",
      "type": "event"
    },
    {
      "anonymous": false,
      "inputs": [
        {
          "indexed": false,
          "internalType": "address",
          "name": "token",
          "type": "address"
        },
        {
          "indexed": false,
          "internalType": "address",
          "name": "user",
          "type": "address"
        },
        {
          "indexed": false,
          "internalType": "uint256",
          "name": "amount",
          "type": "uint256"
        },
        {
          "indexed": false,
          "internalType": "uint256",
          "name": "balance",
          "type": "uint256"
        }
      ],
      "name": "Deposit",
      "type": "event"
    },
    {
      "anonymous": false,
      "inputs": [
        {
          "indexed": false,
          "internalType": "uint256",
          "name": "id",
          "type": "uint256"
        },
        {
          "indexed": false,
          "internalType": "address",
          "name": "user",
          "type": "address"
        },
        {
          "indexed": false,
          "internalType": "address",
          "name": "tokenGet",
          "type": "address"
        },
        {
          "indexed": false,
          "internalType": "uint256",
          "name": "amountGet",
          "type": "uint256"
        },
        {
          "indexed": false,
          "internalType": "address",
          "name": "tokenGive",
          "type": "address"
        },
        {
          "indexed": false,
          "internalType": "uint256",
          "name": "amountGive",
          "type": "uint256"
        },
        {
          "indexed": false,
          "internalType": "uint256",
          "name": "timestamp",
          "type": "uint256"
        }
      ],
      "name": "Order",
      "type": "event"
    },
    {
      "anonymous": false,
      "inputs": [
        {
          "indexed": false,
          "internalType": "uint256",
          "name": "id",
          "type": "uint256"
        },
        {
          "indexed": false,
          "internalType": "address",
          "name": "user",
          "type": "address"
        },
        {
          "indexed": false,
          "internalType": "address",
          "name": "tokenGet",
          "type": "address"
        },
        {
          "indexed": false,
          "internalType": "uint256",
          "name": "amountGet",
          "type": "uint256"
        },
        {
          "indexed": false,
          "internalType": "address",
          "name": "tokenGive",
          "type": "address"
        },
        {
          "indexed": false,
          "internalType": "uint256",
          "name": "amountGive",
          "type": "uint256"
        },
        {
          "indexed": false,
          "internalType": "uint256",
          "name": "timestamp",
          "type": "uint256"
        }
      ],
      "name": "Trade",
      "type": "event"
    },
    {
      "anonymous": false,
      "inputs": [
        {
          "indexed": false,
          "internalType": "address",
          "name": "token",
          "type": "address"
        },
        {
          "indexed": false,
          "internalType": "address",
          "name": "user",
          "type": "address"
        },
        {
          "indexed": false,
          "internalType": "uint256",
          "name": "amount",
          "type": "uint256"
        },
        {
          "indexed": false,
          "internalType": "uint256",
          "name": "balance",
          "type": "uint256"
        }
      ],
      "name": "WithDraw",
      "type": "event"
    },
    {
      "inputs": [],
      "name": "feeAccount",
      "outputs": [
        {
          "internalType": "address",
          "name": "",
          "type": "address"
        }
      ],
      "stateMutability": "view",
      "type": "function",
      "constant": true
    },
    {
      "inputs": [],
      "name": "freePercent",
      "outputs": [
        {
          "internalType": "uint256",
          "name": "",
          "type": "uint256"
        }
      ],
      "stateMutability": "view",
      "type": "function",
      "constant": true
    },
    {
      "inputs": [
        {
          "internalType": "uint256",
          "name": "",
          "type": "uint256"
        }
      ],
      "name": "orderCancel",
      "outputs": [
        {
          "internalType": "bool",
          "name": "",
          "type": "bool"
        }
      ],
      "stateMutability": "view",
      "type": "function",
      "constant": true
    },
    {
      "inputs": [],
      "name": "orderCount",
      "outputs": [
        {
          "internalType": "uint256",
          "name": "",
          "type": "uint256"
        }
      ],
      "stateMutability": "view",
      "type": "function",
      "constant": true
    },
    {
      "inputs": [
        {
          "internalType": "uint256",
          "name": "",
          "type": "uint256"
        }
      ],
      "name": "orderFill",
      "outputs": [
        {
          "internalType": "bool",
          "name": "",
          "type": "bool"
        }
      ],
      "stateMutability": "view",
      "type": "function",
      "constant": true
    },
    {
      "inputs": [
        {
          "internalType": "uint256",
          "name": "",
          "type": "uint256"
        }
      ],
      "name": "orders",
      "outputs": [
        {
          "internalType": "uint256",
          "name": "id",
          "type": "uint256"
        },
        {
          "internalType": "address",
          "name": "user",
          "type": "address"
        },
        {
          "internalType": "address",
          "name": "tokenGet",
          "type": "address"
        },
        {
          "internalType": "uint256",
          "name": "amountGet",
          "type": "uint256"
        },
        {
          "internalType": "address",
          "name": "tokenGive",
          "type": "address"
        },
        {
          "internalType": "uint256",
          "name": "amountGive",
          "type": "uint256"
        },
        {
          "internalType": "uint256",
          "name": "timestamp",
          "type": "uint256"
        }
      ],
      "stateMutability": "view",
      "type": "function",
      "constant": true
    },
    {
      "inputs": [
        {
          "internalType": "address",
          "name": "",
          "type": "address"
        },
        {
          "internalType": "address",
          "name": "",
          "type": "address"
        }
      ],
      "name": "tokens",
      "outputs": [
        {
          "internalType": "uint256",
          "name": "",
          "type": "uint256"
        }
      ],
      "stateMutability": "view",
      "type": "function",
      "constant": true
    },
    {
      "inputs": [],
      "name": "depositEther",
      "outputs": [],
      "stateMutability": "payable",
      "type": "function",
      "payable": true
    },
    {
      "inputs": [
        {
          "internalType": "address",
          "name": "_token",
          "type": "address"
        },
        {
          "internalType": "uint256",
          "name": "_amount",
          "type": "uint256"
        }
      ],
      "name": "depositToken",
      "outputs": [],
      "stateMutability": "nonpayable",
      "type": "function"
    },
    {
      "inputs": [
        {
          "internalType": "uint256",
          "name": "_amount",
          "type": "uint256"
        }
      ],
      "name": "whithdrawEther",
      "outputs": [],
      "stateMutability": "nonpayable",
      "type": "function"
    },
    {
      "inputs": [
        {
          "internalType": "address",
          "name": "_token",
          "type": "address"
        },
        {
          "internalType": "uint256",
          "name": "_amount",
          "type": "uint256"
        }
      ],
      "name": "whithdrawToken",
      "outputs": [],
      "stateMutability": "nonpayable",
      "type": "function"
    },
    {
      "inputs": [
        {
          "internalType": "address",
          "name": "_token",
          "type": "address"
        },
        {
          "internalType": "address",
          "name": "_user",
          "type": "address"
        }
      ],
      "name": "balanceOf",
      "outputs": [
        {
          "internalType": "uint256",
          "name": "",
          "type": "uint256"
        }
      ],
      "stateMutability": "view",
      "type": "function",
      "constant": true
    },
    {
      "inputs": [
        {
          "internalType": "address",
          "name": "_tokenGet",
          "type": "address"
        },
        {
          "internalType": "uint256",
          "name": "_amountGet",
          "type": "uint256"
        },
        {
          "internalType": "address",
          "name": "_tokenGive",
          "type": "address"
        },
        {
          "internalType": "uint256",
          "name": "_amountGive",
          "type": "uint256"
        }
      ],
      "name": "makeOrder",
      "outputs": [],
      "stateMutability": "nonpayable",
      "type": "function"
    },
    {
      "inputs": [
        {
          "internalType": "uint256",
          "name": "_id",
          "type": "uint256"
        }
      ],
      "name": "cancelOrder",
      "outputs": [],
      "stateMutability": "nonpayable",
      "type": "function"
    },
    {
      "inputs": [
        {
          "internalType": "uint256",
          "name": "_id",
          "type": "uint256"
        }
      ],
      "name": "fillOrder",
      "outputs": [],
      "stateMutability": "nonpayable",
      "type": "function"
    }
  ],
  "bytecode": "0x60806040523480156200001157600080fd5b506040516200252e3803806200252e83398181016040528101906200003791906200012b565b816000806101000a81548173ffffffffffffffffffffffffffffffffffffffff021916908373ffffffffffffffffffffffffffffffffffffffff16021790555080600181905550505062000172565b600080fd5b600073ffffffffffffffffffffffffffffffffffffffff82169050919050565b6000620000b8826200008b565b9050919050565b620000ca81620000ab565b8114620000d657600080fd5b50565b600081519050620000ea81620000bf565b92915050565b6000819050919050565b6200010581620000f0565b81146200011157600080fd5b50565b6000815190506200012581620000fa565b92915050565b6000806040838503121562000145576200014462000086565b5b60006200015585828601620000d9565b9250506020620001688582860162000114565b9150509250929050565b6123ac80620001826000396000f3fe608060405260043610610104576000357c01000000000000000000000000000000000000000000000000000000009004806398ea5fca116100a7578063a85c38ef11610076578063a85c38ef146102d9578063acdc5e161461031c578063c348ac6514610347578063f7888aec1461038457610104565b806398ea5fca146102405780639a5c90aa1461024a5780639bc896f914610273578063a2a21801146102b057610104565b8063508493bc116100e3578063508493bc14610186578063514fcac7146101c357806365e17c9d146101ec57806367b830ad1461021757610104565b8062d17285146101095780632453ffa814610132578063338b5dea1461015d575b600080fd5b34801561011557600080fd5b50610130600480360381019061012b9190611d91565b6103c1565b005b34801561013e57600080fd5b506101476106f2565b6040516101549190611de0565b60405180910390f35b34801561016957600080fd5b50610184600480360381019061017f9190611d91565b6106f8565b005b34801561019257600080fd5b506101ad60048036038101906101a89190611dfb565b6109a2565b6040516101ba9190611de0565b60405180910390f35b3480156101cf57600080fd5b506101ea60048036038101906101e59190611e3b565b6109c7565b005b3480156101f857600080fd5b50610201610baa565b60405161020e9190611e77565b60405180910390f35b34801561022357600080fd5b5061023e60048036038101906102399190611e3b565b610bce565b005b61024861148b565b005b34801561025657600080fd5b50610271600480360381019061026c9190611e92565b611656565b005b34801561027f57600080fd5b5061029a60048036038101906102959190611e3b565b611895565b6040516102a79190611f14565b60405180910390f35b3480156102bc57600080fd5b506102d760048036038101906102d29190611e3b565b6118b5565b005b3480156102e557600080fd5b5061030060048036038101906102fb9190611e3b565b611b51565b6040516103139796959493929190611f2f565b60405180910390f35b34801561032857600080fd5b50610331611bf3565b60405161033e9190611de0565b60405180910390f35b34801561035357600080fd5b5061036e60048036038101906103699190611e3b565b611bf9565b60405161037b9190611f14565b60405180910390f35b34801561039057600080fd5b506103ab60048036038101906103a69190611dfb565b611c19565b6040516103b89190611de0565b60405180910390f35b600073ffffffffffffffffffffffffffffffffffffffff168273ffffffffffffffffffffffffffffffffffffffff16036103fa57600080fd5b80600260008473ffffffffffffffffffffffffffffffffffffffff1673ffffffffffffffffffffffffffffffffffffffff16815260200190815260200160002060003373ffffffffffffffffffffffffffffffffffffffff1673ffffffffffffffffffffffffffffffffffffffff16815260200190815260200160002054101561048357600080fd5b61051281600260008573ffffffffffffffffffffffffffffffffffffffff1673ffffffffffffffffffffffffffffffffffffffff16815260200190815260200160002060003373ffffffffffffffffffffffffffffffffffffffff1673ffffffffffffffffffffffffffffffffffffffff16815260200190815260200160002054611ca090919063ffffffff16565b600260008473ffffffffffffffffffffffffffffffffffffffff1673ffffffffffffffffffffffffffffffffffffffff16815260200190815260200160002060003373ffffffffffffffffffffffffffffffffffffffff1673ffffffffffffffffffffffffffffffffffffffff168152602001908152602001600020819055508173ffffffffffffffffffffffffffffffffffffffff1663a9059cbb33836040518363ffffffff167c01000000000000000000000000000000000000000000000000000000000281526004016105e9929190611f9e565b6020604051808303816000875af1158015610608573d6000803e3d6000fd5b505050506040513d601f19601f8201168201806040525081019061062c9190611ff3565b61063557600080fd5b7f2ffdfede8e3142dc22c86f615731d1d79115cf0652b6880e40eb6ef76ed86da2823383600260008773ffffffffffffffffffffffffffffffffffffffff1673ffffffffffffffffffffffffffffffffffffffff16815260200190815260200160002060003373ffffffffffffffffffffffffffffffffffffffff1673ffffffffffffffffffffffffffffffffffffffff168152602001908152602001600020546040516106e69493929190612020565b60405180910390a15050565b60065481565b600073ffffffffffffffffffffffffffffffffffffffff168273ffffffffffffffffffffffffffffffffffffffff160361073157600080fd5b8173ffffffffffffffffffffffffffffffffffffffff166323b872dd3330846040518463ffffffff167c010000000000000000000000000000000000000000000000000000000002815260040161078a93929190612065565b6020604051808303816000875af11580156107a9573d6000803e3d6000fd5b505050506040513d601f19601f820116820180604052508101906107cd9190611ff3565b6107d657600080fd5b61086581600260008573ffffffffffffffffffffffffffffffffffffffff1673ffffffffffffffffffffffffffffffffffffffff16815260200190815260200160002060003373ffffffffffffffffffffffffffffffffffffffff1673ffffffffffffffffffffffffffffffffffffffff16815260200190815260200160002054611cb690919063ffffffff16565b600260008473ffffffffffffffffffffffffffffffffffffffff1673ffffffffffffffffffffffffffffffffffffffff16815260200190815260200160002060003373ffffffffffffffffffffffffffffffffffffffff1673ffffffffffffffffffffffffffffffffffffffff168152602001908152602001600020819055507fdcbc1c05240f31ff3ad067ef1ee35ce4997762752e3a095284754544f4c709d7823383600260008773ffffffffffffffffffffffffffffffffffffffff1673ffffffffffffffffffffffffffffffffffffffff16815260200190815260200160002060003373ffffffffffffffffffffffffffffffffffffffff1673ffffffffffffffffffffffffffffffffffffffff168152602001908152602001600020546040516109969493929190612020565b60405180910390a15050565b6002602052816000526040600020602052806000526040600020600091509150505481565b6000600360008381526020019081526020016000206040518060e0016040529081600082015481526020016001820160009054906101000a900473ffffffffffffffffffffffffffffffffffffffff1673ffffffffffffffffffffffffffffffffffffffff1673ffffffffffffffffffffffffffffffffffffffff1681526020016002820160009054906101000a900473ffffffffffffffffffffffffffffffffffffffff1673ffffffffffffffffffffffffffffffffffffffff1673ffffffffffffffffffffffffffffffffffffffff168152602001600382015481526020016004820160009054906101000a900473ffffffffffffffffffffffffffffffffffffffff1673ffffffffffffffffffffffffffffffffffffffff1673ffffffffffffffffffffffffffffffffffffffff16815260200160058201548152602001600682015481525050905081816000015114610b2357600080fd5b60016004600084815260200190815260200160002060006101000a81548160ff0219169083151502179055507f77de1da0be5f2d3b110d05c6694e5c4ff2d9da7cd23d84353ecf78c7b5acec618160000151338360400151846060015185608001518660a0015142604051610b9e9796959493929190611f2f565b60405180910390a15050565b60008054906101000a900473ffffffffffffffffffffffffffffffffffffffff1681565b6000600360008381526020019081526020016000206040518060e0016040529081600082015481526020016001820160009054906101000a900473ffffffffffffffffffffffffffffffffffffffff1673ffffffffffffffffffffffffffffffffffffffff1673ffffffffffffffffffffffffffffffffffffffff1681526020016002820160009054906101000a900473ffffffffffffffffffffffffffffffffffffffff1673ffffffffffffffffffffffffffffffffffffffff1673ffffffffffffffffffffffffffffffffffffffff168152602001600382015481526020016004820160009054906101000a900473ffffffffffffffffffffffffffffffffffffffff1673ffffffffffffffffffffffffffffffffffffffff1673ffffffffffffffffffffffffffffffffffffffff16815260200160058201548152602001600682015481525050905081816000015114610d2a57600080fd5b6000610d586064610d4a6001548560600151611ccc90919063ffffffff16565b611ce290919063ffffffff16565b90508160a00151610d7183608001518460200151611c19565b1015610db2576040517f08c379a0000000000000000000000000000000000000000000000000000000008152600401610da99061211f565b60405180910390fd5b610dc9818360600151611cb690919063ffffffff16565b610dd7836040015133611c19565b1015610e18576040517f08c379a0000000000000000000000000000000000000000000000000000000008152600401610e0f906121b1565b60405180910390fd5b610ec1610e32828460600151611cb690919063ffffffff16565b60026000856040015173ffffffffffffffffffffffffffffffffffffffff1673ffffffffffffffffffffffffffffffffffffffff16815260200190815260200160002060003373ffffffffffffffffffffffffffffffffffffffff1673ffffffffffffffffffffffffffffffffffffffff16815260200190815260200160002054611ca090919063ffffffff16565b60026000846040015173ffffffffffffffffffffffffffffffffffffffff1673ffffffffffffffffffffffffffffffffffffffff16815260200190815260200160002060003373ffffffffffffffffffffffffffffffffffffffff1673ffffffffffffffffffffffffffffffffffffffff16815260200190815260200160002081905550610ff98160026000856040015173ffffffffffffffffffffffffffffffffffffffff1673ffffffffffffffffffffffffffffffffffffffff16815260200190815260200160002060008060009054906101000a900473ffffffffffffffffffffffffffffffffffffffff1673ffffffffffffffffffffffffffffffffffffffff1673ffffffffffffffffffffffffffffffffffffffff16815260200190815260200160002054611cb690919063ffffffff16565b60026000846040015173ffffffffffffffffffffffffffffffffffffffff1673ffffffffffffffffffffffffffffffffffffffff16815260200190815260200160002060008060009054906101000a900473ffffffffffffffffffffffffffffffffffffffff1673ffffffffffffffffffffffffffffffffffffffff1673ffffffffffffffffffffffffffffffffffffffff16815260200190815260200160002081905550611139826060015160026000856040015173ffffffffffffffffffffffffffffffffffffffff1673ffffffffffffffffffffffffffffffffffffffff1681526020019081526020016000206000856020015173ffffffffffffffffffffffffffffffffffffffff1673ffffffffffffffffffffffffffffffffffffffff16815260200190815260200160002054611cb690919063ffffffff16565b60026000846040015173ffffffffffffffffffffffffffffffffffffffff1673ffffffffffffffffffffffffffffffffffffffff1681526020019081526020016000206000846020015173ffffffffffffffffffffffffffffffffffffffff1673ffffffffffffffffffffffffffffffffffffffff168152602001908152602001600020819055506112588260a0015160026000856080015173ffffffffffffffffffffffffffffffffffffffff1673ffffffffffffffffffffffffffffffffffffffff16815260200190815260200160002060003373ffffffffffffffffffffffffffffffffffffffff1673ffffffffffffffffffffffffffffffffffffffff16815260200190815260200160002054611cb690919063ffffffff16565b60026000846080015173ffffffffffffffffffffffffffffffffffffffff1673ffffffffffffffffffffffffffffffffffffffff16815260200190815260200160002060003373ffffffffffffffffffffffffffffffffffffffff1673ffffffffffffffffffffffffffffffffffffffff168152602001908152602001600020819055506113778260a0015160026000856080015173ffffffffffffffffffffffffffffffffffffffff1673ffffffffffffffffffffffffffffffffffffffff1681526020019081526020016000206000856020015173ffffffffffffffffffffffffffffffffffffffff1673ffffffffffffffffffffffffffffffffffffffff16815260200190815260200160002054611ca090919063ffffffff16565b60026000846080015173ffffffffffffffffffffffffffffffffffffffff1673ffffffffffffffffffffffffffffffffffffffff1681526020019081526020016000206000846020015173ffffffffffffffffffffffffffffffffffffffff1673ffffffffffffffffffffffffffffffffffffffff1681526020019081526020016000208190555060016005600085815260200190815260200160002060006101000a81548160ff0219169083151502179055507faba0fc968824c4949185cfdd55a197a4d41616a98cc2d97fd34224ebcdf76744826000015183602001518460400151856060015186608001518760a001514260405161147e9796959493929190611f2f565b60405180910390a1505050565b61151a34600260008073ffffffffffffffffffffffffffffffffffffffff1673ffffffffffffffffffffffffffffffffffffffff16815260200190815260200160002060003373ffffffffffffffffffffffffffffffffffffffff1673ffffffffffffffffffffffffffffffffffffffff16815260200190815260200160002054611cb690919063ffffffff16565b600260008073ffffffffffffffffffffffffffffffffffffffff1673ffffffffffffffffffffffffffffffffffffffff16815260200190815260200160002060003373ffffffffffffffffffffffffffffffffffffffff1673ffffffffffffffffffffffffffffffffffffffff168152602001908152602001600020819055507fdcbc1c05240f31ff3ad067ef1ee35ce4997762752e3a095284754544f4c709d760003334600260008073ffffffffffffffffffffffffffffffffffffffff1673ffffffffffffffffffffffffffffffffffffffff16815260200190815260200160002060003373ffffffffffffffffffffffffffffffffffffffff1673ffffffffffffffffffffffffffffffffffffffff1681526020019081526020016000205460405161164c9493929190612020565b60405180910390a1565b806116618333611c19565b10156116a2576040517f08c379a00000000000000000000000000000000000000000000000000000000081526004016116999061221d565b60405180910390fd5b6116b86001600654611cb690919063ffffffff16565b6006819055506040518060e0016040528060065481526020013373ffffffffffffffffffffffffffffffffffffffff1681526020018573ffffffffffffffffffffffffffffffffffffffff1681526020018481526020018373ffffffffffffffffffffffffffffffffffffffff168152602001828152602001428152506003600060065481526020019081526020016000206000820151816000015560208201518160010160006101000a81548173ffffffffffffffffffffffffffffffffffffffff021916908373ffffffffffffffffffffffffffffffffffffffff16021790555060408201518160020160006101000a81548173ffffffffffffffffffffffffffffffffffffffff021916908373ffffffffffffffffffffffffffffffffffffffff1602179055506060820151816003015560808201518160040160006101000a81548173ffffffffffffffffffffffffffffffffffffffff021916908373ffffffffffffffffffffffffffffffffffffffff16021790555060a0820151816005015560c082015181600601559050507f9d33853d43e3607b4cc01fdc78338ff2dca6fef7db9232dae6d3eb55fbc3b1096006543386868686426040516118879796959493929190611f2f565b60405180910390a150505050565b60046020528060005260406000206000915054906101000a900460ff1681565b80600260008073ffffffffffffffffffffffffffffffffffffffff1673ffffffffffffffffffffffffffffffffffffffff16815260200190815260200160002060003373ffffffffffffffffffffffffffffffffffffffff1673ffffffffffffffffffffffffffffffffffffffff16815260200190815260200160002054101561193e57600080fd5b6119cd81600260008073ffffffffffffffffffffffffffffffffffffffff1673ffffffffffffffffffffffffffffffffffffffff16815260200190815260200160002060003373ffffffffffffffffffffffffffffffffffffffff1673ffffffffffffffffffffffffffffffffffffffff16815260200190815260200160002054611ca090919063ffffffff16565b600260008073ffffffffffffffffffffffffffffffffffffffff1673ffffffffffffffffffffffffffffffffffffffff16815260200190815260200160002060003373ffffffffffffffffffffffffffffffffffffffff1673ffffffffffffffffffffffffffffffffffffffff168152602001908152602001600020819055503373ffffffffffffffffffffffffffffffffffffffff166108fc829081150290604051600060405180830381858888f19350505050158015611a93573d6000803e3d6000fd5b507f2ffdfede8e3142dc22c86f615731d1d79115cf0652b6880e40eb6ef76ed86da260003383600260008073ffffffffffffffffffffffffffffffffffffffff1673ffffffffffffffffffffffffffffffffffffffff16815260200190815260200160002060003373ffffffffffffffffffffffffffffffffffffffff1673ffffffffffffffffffffffffffffffffffffffff16815260200190815260200160002054604051611b469493929190612020565b60405180910390a150565b60036020528060005260406000206000915090508060000154908060010160009054906101000a900473ffffffffffffffffffffffffffffffffffffffff16908060020160009054906101000a900473ffffffffffffffffffffffffffffffffffffffff16908060030154908060040160009054906101000a900473ffffffffffffffffffffffffffffffffffffffff16908060050154908060060154905087565b60015481565b60056020528060005260406000206000915054906101000a900460ff1681565b6000600260008473ffffffffffffffffffffffffffffffffffffffff1673ffffffffffffffffffffffffffffffffffffffff16815260200190815260200160002060008373ffffffffffffffffffffffffffffffffffffffff1673ffffffffffffffffffffffffffffffffffffffff16815260200190815260200160002054905092915050565b60008183611cae919061226c565b905092915050565b60008183611cc491906122a0565b905092915050565b60008183611cda91906122d4565b905092915050565b60008183611cf09190612345565b905092915050565b600080fd5b600073ffffffffffffffffffffffffffffffffffffffff82169050919050565b6000611d2882611cfd565b9050919050565b611d3881611d1d565b8114611d4357600080fd5b50565b600081359050611d5581611d2f565b92915050565b6000819050919050565b611d6e81611d5b565b8114611d7957600080fd5b50565b600081359050611d8b81611d65565b92915050565b60008060408385031215611da857611da7611cf8565b5b6000611db685828601611d46565b9250506020611dc785828601611d7c565b9150509250929050565b611dda81611d5b565b82525050565b6000602082019050611df56000830184611dd1565b92915050565b60008060408385031215611e1257611e11611cf8565b5b6000611e2085828601611d46565b9250506020611e3185828601611d46565b9150509250929050565b600060208284031215611e5157611e50611cf8565b5b6000611e5f84828501611d7c565b91505092915050565b611e7181611d1d565b82525050565b6000602082019050611e8c6000830184611e68565b92915050565b60008060008060808587031215611eac57611eab611cf8565b5b6000611eba87828801611d46565b9450506020611ecb87828801611d7c565b9350506040611edc87828801611d46565b9250506060611eed87828801611d7c565b91505092959194509250565b60008115159050919050565b611f0e81611ef9565b82525050565b6000602082019050611f296000830184611f05565b92915050565b600060e082019050611f44600083018a611dd1565b611f516020830189611e68565b611f5e6040830188611e68565b611f6b6060830187611dd1565b611f786080830186611e68565b611f8560a0830185611dd1565b611f9260c0830184611dd1565b98975050505050505050565b6000604082019050611fb36000830185611e68565b611fc06020830184611dd1565b9392505050565b611fd081611ef9565b8114611fdb57600080fd5b50565b600081519050611fed81611fc7565b92915050565b60006020828403121561200957612008611cf8565b5b600061201784828501611fde565b91505092915050565b60006080820190506120356000830187611e68565b6120426020830186611e68565b61204f6040830185611dd1565b61205c6060830184611dd1565b95945050505050565b600060608201905061207a6000830186611e68565b6120876020830185611e68565b6120946040830184611dd1565b949350505050565b600082825260208201905092915050565b7fe5889be5bbbae8aea2e58d95e79a84e794a8e688b7e4bba5e5a4aae5b881e4bd60008201527f99e9a29de4b88de8b6b3efbc8100000000000000000000000000000000000000602082015250565b6000612109602d8361209c565b9150612114826120ad565b604082019050919050565b60006020820190508181036000830152612138816120fc565b9050919050565b7fe5a1abe58585e8aea2e58d95e79a84e794a8e688b7e79a84e4bba5e5a4aae5b860008201527f81e4bd99e9a29de4b88de8b6b3efbc8100000000000000000000000000000000602082015250565b600061219b60308361209c565b91506121a68261213f565b604082019050919050565b600060208201905081810360008301526121ca8161218e565b9050919050565b7fe5889be5bbbae8aea2e58d95e697b6e4bd99e9a29de4b88de8b6b30000000000600082015250565b6000612207601b8361209c565b9150612212826121d1565b602082019050919050565b60006020820190508181036000830152612236816121fa565b9050919050565b7f4e487b7100000000000000000000000000000000000000000000000000000000600052601160045260246000fd5b600061227782611d5b565b915061228283611d5b565b925082820390508181111561229a5761229961223d565b5b92915050565b60006122ab82611d5b565b91506122b683611d5b565b92508282019050808211156122ce576122cd61223d565b5b92915050565b60006122df82611d5b565b91506122ea83611d5b565b92508282026122f881611d5b565b9150828204841483151761230f5761230e61223d565b5b5092915050565b7f4e487b7100000000000000000000000000000000000000000000000000000000600052601260045260246000fd5b600061235082611d5b565b915061235b83611d5b565b92508261236b5761236a612316565b5b82820490509291505056fea26469706673582212206269bcf19ad4e83d602d5d84802a8337f8cc81bf128f9a34c5ea6a95abe05a7e64736f6c63430008120033",
  "immutableReferences": {},
  "source": "// SPDX-License-Identifier: GPL-3.0\n//\npragma solidity >=0.8.2 <0.9.0; //solidity\n\nimport \"openzeppelin-solidity/contracts/utils/math/SafeMath.sol\";\nimport \"./KerwinToken.sol\";\n\ncontract Exchange {\n    using SafeMath for uint256; //subadd\n\n    //\n    address public feeAccount; //\n    uint256 public freePercent; //\n    address constant ETHER = address(0);\n    mapping(address => mapping(address => uint256)) public tokens;\n    // {\n    //     \"\":{\n    //         \"a\":100,\n    //         \"b\":200,\n    //     },\n    //     \"KWT\":{\n    //         \"a\":300,\n    //         \"b\":200,\n    //     },\n    //     \"\":{\n    //         \"a\":200,\n    //         \"b\":300,\n    //     },\n    // }\n\n    struct _Order {\n        uint id;\n        address user;\n        address tokenGet;\n        uint amountGet;\n        address tokenGive;\n        uint amountGive;\n        uint timestamp;\n    }\n\n    // _Order[] orderList;\n    mapping(uint => _Order) public orders;\n    mapping(uint => bool) public orderCancel;\n    mapping(uint => bool) public orderFill;\n    uint256 public orderCount;\n\n    constructor(address _feeAcount, uint256 _freePercent) {\n        feeAccount = _feeAcount;\n        freePercent = _freePercent;\n    }\n\n    //amount balance \n    event Deposit(address token, address user, uint256 amount, uint256 balance);\n    event WithDraw(\n        address token,\n        address user,\n        uint256 amount,\n        uint256 balance\n    );\n\n    event Order(\n        uint id,\n        address user,\n        address tokenGet,\n        uint amountGet,\n        address tokenGive,\n        uint amountGive,\n        uint timestamp\n    );\n    event Cancel(\n        uint id,\n        address user,\n        address tokenGet,\n        uint amountGet,\n        address tokenGive,\n        uint amountGive,\n        uint timestamp\n    );\n\n    //\n    event Trade(\n        uint id,\n        address user,\n        address tokenGet,\n        uint amountGet,\n        address tokenGive,\n        uint amountGive,\n        uint timestamp\n    );\n\n    // \n    function depositEther() public payable {\n        //msg.sender\n        //msg.value\n        // tokens[][msg.sender] = tokens[][msg.sender].add(msg.value);\n        tokens[ETHER][msg.sender] = tokens[ETHER][msg.sender].add(msg.value);\n        emit Deposit(ETHER, msg.sender, msg.value, tokens[ETHER][msg.sender]);\n    }\n\n    // \n    function depositToken(address _token, uint256 _amount) public {\n        require(_token != ETHER);\n        //()\n        //msg.sender \n        //address(this) \n        //kerwintoken.transferFrom(msg.sender, , _amount);\n        require(\n            KerwinToken(_token).transferFrom(msg.sender, address(this), _amount)\n        );\n\n        tokens[_token][msg.sender] = tokens[_token][msg.sender].add(_amount);\n\n        emit Deposit(_token, msg.sender, _amount, tokens[_token][msg.sender]);\n    }\n\n    // \n    function whithdrawEther(uint256 _amount) public {\n        require(tokens[ETHER][msg.sender] >= _amount);\n        //_amount\n        tokens[ETHER][msg.sender] = tokens[ETHER][msg.sender].sub(_amount);\n        //_amountmsg.sender\n        payable(msg.sender).transfer(_amount);\n        emit WithDraw(ETHER, msg.sender, _amount, tokens[ETHER][msg.sender]);\n    }\n\n    // kwt\n    function whithdrawToken(address _token, uint256 _amount) public {\n        require(_token != ETHER);\n        require(tokens[_token][msg.sender] >= _amount);\n        tokens[_token][msg.sender] = tokens[_token][msg.sender].sub(_amount);\n        //msg.sender\n        require(KerwinToken(_token).transfer(msg.sender, _amount));\n        emit WithDraw(_token, msg.sender, _amount, tokens[_token][msg.sender]);\n    }\n\n    //\n    function balanceOf(\n        address _token,\n        address _user\n    ) public view returns (uint256) {\n        return tokens[_token][_user];\n    }\n\n    //\n    function makeOrder(\n        address _tokenGet,\n        uint _amountGet,\n        address _tokenGive,\n        uint _amountGive\n    ) public {\n        require(\n            balanceOf(_tokenGive, msg.sender) >= _amountGive,\n            unicode\"\"\n        );\n\n        orderCount = orderCount.add(1);\n        orders[orderCount] = _Order(\n            orderCount,\n            msg.sender,\n            _tokenGet,\n            _amountGet,\n            _tokenGive,\n            _amountGive,\n            block.timestamp //\n        );\n        // \n        emit Order(\n            orderCount,\n            msg.sender,\n            _tokenGet,\n            _amountGet,\n            _tokenGive,\n            _amountGive,\n            block.timestamp //\n        );\n    }\n\n    //\n    function cancelOrder(uint _id) public {\n        _Order memory myorder = orders[_id];\n        require(myorder.id == _id);\n        orderCancel[_id] = true; //\n        emit Cancel(\n            myorder.id,\n            msg.sender,\n            myorder.tokenGet,\n            myorder.amountGet,\n            myorder.tokenGive,\n            myorder.amountGive,\n            block.timestamp\n        );\n    }\n\n    //fillOrder()\n    function fillOrder(uint _id) public {\n        _Order memory myorder = orders[_id];\n        require(myorder.id == _id);\n        /**\n               && \n            xiaoming makeorder100kwt1EHT\n            msg.sender\n            100kwt ==> 1 ether\n\n            msg.sender -> fillorder\n            msg.sender 1 ether\n            msg.sender  100kwt\n\n        */\n        // kwt * 10 / 100\n        uint feeAmount = myorder.amountGet.mul(freePercent).div(100);\n\n        require(\n            balanceOf(myorder.tokenGive, myorder.user) >= myorder.amountGive,\n            unicode\"\"\n        );\n\n        require(\n            balanceOf(myorder.tokenGet, msg.sender) >=\n                myorder.amountGet.add(feeAmount),\n            unicode\"\"\n        );\n\n        //ktw\n        tokens[myorder.tokenGet][msg.sender] = tokens[myorder.tokenGet][\n            msg.sender\n        ].sub(myorder.amountGet.add(feeAmount));\n        //\n        tokens[myorder.tokenGet][feeAccount] = tokens[myorder.tokenGet][\n            feeAccount\n        ].add(feeAmount);\n\n        tokens[myorder.tokenGet][myorder.user] = tokens[myorder.tokenGet][\n            myorder.user\n        ].add(myorder.amountGet);\n\n        //\n        tokens[myorder.tokenGive][msg.sender] = tokens[myorder.tokenGive][\n            msg.sender\n        ].add(myorder.amountGive);\n\n        tokens[myorder.tokenGive][myorder.user] = tokens[myorder.tokenGive][\n            myorder.user\n        ].sub(myorder.amountGive);\n\n        orderFill[_id] = true; //\n\n        emit Trade(\n            myorder.id,\n            myorder.user,\n            myorder.tokenGet,\n            myorder.amountGet,\n            myorder.tokenGive,\n            myorder.amountGive,\n            block.timestamp\n        );\n    }\n}\n",
  "sourcePath": "/Users/flyingpig/study/web3.0/code/myapp/contracts/Exchange.sol",
  "compiler": {
    "name": "solc",
    "version": "0.8.18+commit.87f61d96.Emscripten.clang"
  },
  "schemaVersion": "3.4.12",
  "updatedAt": "2023-03-15T13:19:05.812Z",
  "networkType": "ethereum",
  "devdoc": {
    "kind": "dev",
    "methods": {},
    "version": 1
  },
  "userdoc": {
    "kind": "user",
    "methods": {},
    "version": 1
  }
}